:101052005E01A80000077406A505EB059904FC04CF
:101062007003F403BC035402F702CC027E0238017F
:10107200FA60CC00DC0A010A010A010A010C010C27
:1010820003090109010A010901080108010801080F
:101092000108010A020A010A010B020A03000108FF
:1010A20001080109010801090200010801080206FC
:1010B20001060105030001090109010A010B010BE7
:1010C200020001090108010A010900090200010ADE
:1010D200010A010A010A010C010C0300040A010AB7
:1010E200010C010C020A01000608010801080108AE
:1010F2000108010A020A0100010A010A010A020AA0
:10110200010A010B010A0400020801080109010891
:10111200010802060108010802060105030002098E
:101122000109010A010B010B0200010A0109010870
:10113200010A010901000000000000000000000097
:10114200005101D93F065B4F666D7D077F6F777C4B
:10115200395E7971004800D20001020304050607D6
:101162004200DA00004201CD00004201D1000342F8
:0E11720001CF00014201D500004201C600017C
:10155E00E4F5937594FFF59575960875B210F5B18F
:10156E00D2AF12164A12165F12000E1213FFE4903B
:10157E000000F0A3F0A3F0A304F0A3E4F0A304F0A2
:10158E00A3E4F0A304F09001EEE4F0A304F0E490E1
:10159E0001EAF0A3F0A3F0A3F0C2B49001D7F0A338
:0815AE00F0900008F0A3F02208
:03002B00020027A9
:0400270053BCEF32A5
:10125F0012061D9001EEE07002A3E0600812002E4E
:10126F0012118180EE9001EAE07002A3E0606FE45A
:10127F009001CCF09001CCE0FFC39001D2E09F74BD
:10128F0080F89001D1E064809840539001CCE02524
:10129F00E0240AF582E43400F583E0FCA3E0FDEFDF
:1012AF0025E024F2F582E43401F583ECF0A3EDF0B0
:1012BF009001CCE0FF25E0246EF582E43400F58345
:1012CF00E0FCA3E0FDEF25E02456F582E43402F5BF
:1012DF0083ECF0A3EDF09001CCE004F08096120DBA
:0412EF00DC021262A9
:03001B0002166466
:03166400B2B432EB
:03000B0002092ABD
:10092A00C0E0C0F0C083C082C0D075D000C000C093
:10093A0001C002C003C004C005C006C007758CFC14
:10094A00758A189001CAE0B4030BA3E0B4E8061252
:10095A00137F1214F29001EEE07002A3E07016C346
:10096A009001CBE094329001CAE094004007E4F091
:10097A00A3F01215FA9001EEE07002A3E0700302F0
:10098A000C069001CDE07002A3E0602C900009E013
:10099A0004F07006900008E004F0D3900009E09497
:1009AA00B4900008E09400400F9001CDE4F0A3F069
:1009BA00900008F0A3F0C28E9001ECE07002A3E070
:1009CA00602A9001F1E004F070069001F0E004F072
:1009DA00D39001F1E0942C9001F0E09401400D9045
:1009EA0001ECE4F0A3F09001F0F0A3F09001CAE06A
:1009FA00FAA3E0FB7C007D32FFAE02120F19ED4C28
:100A0A006003020AC89001ECE07002A3E0600302EE
:100A1A000AC89001CFE0FEA3E0FF64024E600D20F9
:100A2A00B20A9001CFE4F0A37403800E20B316EF4C
:100A3A004E60129001CFE4F0A304F09001ECE4F0D0
:100A4A00A304F080799001C874FFF0A3F0E5BD54C7
:100A5A0003FFADBEED9001C8CFF0A3EFF09001C83F
:100A6A00E0FEA3E07807CEA2E713CE13D8F8FF90F2
:100A7A0001C8EEF0A3EFF064034E70189001CFE0C6
:100A8A007004A3E06401600C9001CFE4F0A3F0903D
:100A9A0001EC80239001C8E07002A3E0701D900170
:100AAA00CFE07004A3E0640360119001CFE4F0A3E7
:100ABA007402F09001ECE4F0A304F043BC08EB6488
:0B0ACA00E87003EA64036003020C06FE
:100AD5009002BAF09002BAE0FFC39001D2E09F7491
:100AE50080F89001D1E064809840539002BAE025E7
:100AF500E024F2F582E43401F583E0FCA3E0FDEFA8
:100B050025E0240AF582E43400F583ECF0A3EDF04A
:100B15009002BAE0FF25E02456F582E43402F5831D
:100B2500E0FCA3E0FDEF25E0246EF582E43400F55A
:100B350083ECF0A3EDF09002BAE004F08096120C7D
:100B45002F9001D1A3E09002BAF09002BAE0D394BD
:100B5500004051E0FF25E024F0F582E43401F583FF
:100B6500E0FCA3E0FDEF25E024F2F582E43401F595
:100B750083ECF0A3EDF09002BAE0FF25E02454F5F4
:100B850082E43402F583E0FCA3E0FDEF25E0245682
:100B9500F582E43402F583ECF0A3EDF09002BAE0BF
:100BA50014F080A69001CFE0FEA3E0FF64034E7031
:100BB500109001F3E004F0703E9001F2E004F08043
:100BC50036EF64024E700C9001F3E024FFF09001C3
:100BD500F28020EF64014E7010900257E004F0702F
:100BE50016900256E004F0800E900257E024FFF0C4
:100BF500900256E034FFF012147D9001CAE4F0A390
:010C0500F0FE
:100C06009001CBE004F070069001CAE004F0D00732
:100C1600D006D005D004D003D002D001D000D0D069
:090C2600D082D083D0F0D0E0327E
:0600030012155E02125FFF
:1013FF00E49001CCF09001CCE0FFC39431502AEF80
:10140F0025E02456F582E43402F58374FFF0A3F04F
:10141F00EF25E024F2F582E43401F58374FFF0A3A5
:10142F00F09001CCE004F080CC9001F2E4F0A374D2
:10143F0003F0A3E4F0A37402F0A3E4F0A304F0E438
:10144F00A3F0A3F090025CF0A3F090025AF0A3F087
:10145F00900258F0A3F0900256F0A3F09001D1F053
:0E146F00A37403F09001CFE4F0A37403F02205
:1014F2009001CC7401F09001CCE0FFFDD39001D2B9
:10150200E09D7480F89001D1E0648098404DEF2511
:10151200E024F2F582E43401F583E0FEA3E0FF90DB
:1015220001F2E0B5062DA3E0B507289001CCE02535
:10153200E02456F582E43402F583E0FEA3E0FF9056
:101542000256E0B5060DA3E0B50708E49001EEF0FF
:0C155200A3F0229001CCE004F0809B226A
:10164A00758901758CFC758A18D28CD2A9E490012F
:05165A00CAF0A3F0221C
:05165F00D2ABD28E2287
:0C000E00759D8075BC87439720D2AD2201
:10137F00E49001CCF09001CCE0FFFDC39001D2E0EE
:10138F009D7480F89001D1E06480984062EF25E071
:10139F0024F2F582E43401F583E0FEA3E0FFC3EE0F
:1013AF00648094804032D3EF9408EE648094805030
:1013BF00279001CCE025E02456F582E43402F58332
:1013CF00E0FEA3E0FFC3EE64809480400BD3EF9464
:1013DF0002EE64809480400FE49001EEF0A3F09051
:1013EF0001EAF0A304F0229001CCE004F080862201
:1015FA00E4F5809001D5E0FEA3E024D2F5827400E0
:10160A003EF583E0F5A09001D1E0FEA3E024D9F5F0
:0A161A008274013EF583E0F58022A2
:100DDC009001D7E0FEA3E024DCF58274003EF5839D
:100DEC00E025E024A8F582E43401F583E0FEA3E0DD
:100DFC00FF4E605DD28EE4C39FFFE49EFE740194AF
:100E0C0000FDE49400FCE4FB7A01F9F81215B68FAE
:100E1C008D9001D7E0FEA3E024DCF58274003EF552
:100E2C0083E025E024A8F582E43401F583E0FEA3F9
:100E3C00E0FBE4C39BFFE49EFE74019400FDE4948C
:100E4C0000FCE4FB7A01F9F81215B6AF038F8B8026
:100E5C0002C28E9001D7E475F001120F6EFE74DCA5
:100E6C0025F0F58274003EF583E075F0B4A4FFAE76
:100E7C00F0121624C28E9001D7E0FEA3E024DCF51C
:100E8C008274003EF583E075F03CA4FFAEF01216C0
:100E9C00249001D8E004F070069001D7E004F090A3
:100EAC0001D5E0FEA3E0FFD39400EE648094805063
:100EBC00089001C6E4F0A304F0C3EF9407EE64803D
:100ECC0094804007E49001C6F0A3F09001C6E07056
:100EDC0002A3E060109001D6E004F070169001D5EA
:100EEC00E004F0800E9001D6E024FFF09001D5E0F4
:100EFC0034FFF09001D7E07004A3E064CC700D9047
:0D0F0C0001D7F0A3F07F887E131216242277
:10147D009001CDE07002A3E0706AD28E9000DFE0A3
:10148D0025E024A8F582E43401F583E0FEA3E0FB1A
:10149D00E4C39BFFE49EFE74019400FDE49400FC04
:1014AD00E4FB7A01F9F81215B68F8D9000DFE02577
:1014BD00E024A8F582E43401F583E0FEA3E0FBE42B
:1014CD00C39BFFE49EFE74019400FDE49400FCE4D4
:1014DD00FB7A01F9F81215B6AF038F8B9001CDE4AD
:0514ED00F0A304F02251
:03061D00E4FFFEF9
:10062000E58C75F00384ADF09002C2E4F0A3EDF028
:10063000E58A75F00984ADF0A3E4F0A3EDF0E58C54
:1006400013135401FDA3E4F0A3EDF0E49001CCF00A
:100650009001CCE0FDD39001D2E09D7480F8900130
:10066000D1E064809850030208BF9001CCE025E0FF
:1006700024F4F582E43401F583E0FAA3E0FBED25F0
:10068000E024F2F582E43401F583E0FCA3E0C39BAF
:10069000FDEC9AFCD3ED9400EC648094804054907F
:1006A00001CFE07002A3E0600302087D9001CCE07E
:1006B000F925E024F4F582E43401F583E0FCA3E0BD
:1006C000FD9002C4E06C7003A3E06D600302087D3E
:1006D000E925E02458F582E43402F583E0FCA3E048
:1006E000FD9002C2E06C7003A3E06D600302087D20
:1006F0000208BF9001CCE0FD25E024F4F582E4344B
:1007000001F583E0FAA3E0FBED25E024F2F582E4B5
:100710003401F583E0FCA3E0C39BEC9AC3648094AE
:100720008050549001CFE07002A3E0600302087D86
:100730009001CCE0F925E024F2F582E43401F58360
:10074000E0FCA3E0FD9002C4E06C7003A3E06D60E8
:100750000302087DE925E02456F582E43402F5839E
:10076000E0FCA3E0FD9002C2E06C7003A3E06D60CA
:100770000302087D0208BF9001CCE0FD25E024586B
:10078000F582E43402F583E0FAA3E0FBED25E024F2
:1007900056F582E43402F583E0FCA3E0C39BFDEC54
:1007A0009AFCD3ED9400EC6480948040569001CF85
:1007B000E07004A3E06401600302087D9001CCE0D6
:1007C000F925E024F4F582E43401F583E0FCA3E0AC
:1007D000FD9002C4E06C7003A3E06D600302087D2D
:1007E000E925E02458F582E43402F583E0FCA3E037
:1007F000FD9002C2E06C7003A3E06D600302087D0F
:100800000208BF9001CCE0FD25E02458F582E434D5
:1008100002F583E0FAA3E0FBED25E02456F582E43F
:100820003402F583E0FCA3E0C39BEC9AC36480949C
:1008300080504A9001CFE07004A3E06401703E90C4
:1008400001CCE0F925E024F2F582E43401F583E0FF
:10085000FCA3E0FD9002C4E0B50422A3E0B5051DB1
:10086000E925E02456F582E43402F583E0FCA3E0B8
:10087000FD9002C2E06C7003A3E06D60429001D174
:10088000A3E0149001CCF0602D9001CFE0FCA3E038
:10089000FD4C700C9002C4E07004A3E06408601684
:1008A000ED64014C700C9002C2E07004A3E064029D
:1008B00060047E007F019001CCE004F0020650EF5E
:1008C00064014E60030206209002C4E0FEA3E0FF34
:1008D000900000EEF0A3EFF09001CFE0FCA3E0FD6C
:1008E0004C7002800E9002C5E02401FF9002C4E02B
:1008F0003400FE900002EEF0A3EFF09002C2E0FEA2
:10090000A3E0FF900004EEF0A3EFF0ED64014C7063
:1009100002800E9002C3E02401FF9002C2E0340086
:09092000FE900006EEF0A3EFF0DA
:0109290022AB
:100C2F00900000E0FEA3E0FF9001F2E06E7003A3DE
:100C3F00E06F6003020D04900004E0FCA3E0FD9060
:100C4F000256E06C7003A3E06D6003020D04900187
:100C5F00CFE07004A3E064036003020D04C39000AF
:100C6F0003E09FFF900002E09EFEEF64014E6003E1
:100C7F00020D049001D2E004F070069001D1E0045F
:100C8F00F09001D1A3E09002BBF09002BBE0D394AF
:100C9F00004051E0FF25E024F0F582E43401F583B4
:100CAF00E0FCA3E0FDEF25E024F2F582E43401F54A
:100CBF0083ECF0A3EDF09002BBE0FF25E02454F5A8
:100CCF0082E43402F583E0FCA3E0FDEF25E0245637
:100CDF00F582E43402F583ECF0A3EDF09002BBE073
:100CEF0014F080A69001F3E004F070069001F2E09A
:100CFF0004F012061D900002E0FEA3E0FF9001F247
:100D0F00E06E7003A3E06F6003020DDB900004E060
:100D1F00FCA3E0FD900256E06C7003A3E06D60034E
:100D2F00020DDB9001CFE07004A3E06402600302C8
:100D3F000DDB900000E0FCA3E0FDC3EF9DFFEE9CF8
:100D4F00FEEF64014E6003020DDB9001D2E004F070
:100D5F0070069001D1E004F09001D1A3E09002BBA6
:100D6F00F09002BBE0D394004051E0FF25E024F067
:100D7F00F582E43401F583E0FCA3E0FDEF25E024E8
:100D8F00F2F582E43401F583ECF0A3EDF09002BBB1
:100D9F00E0FF25E02454F582E43402F583E0FCA360
:100DAF00E0FDEF25E02456F582E43402F583ECF004
:100DBF00A3EDF09002BBE014F080A69001F3E024C5
:0C0DCF00FFF09001F2E034FFF012061D6E
:010DDB0022F5
:10118100E4F5809001D3F0A3F0900002E0FEA3E02B
:10119100FF900000E0FCA3E0FDC39FFFEC9E4F70B9
:1011A1002AED4C6026740444007005FE7F20800403
:1011B1007E007F109001D4E02FF09001D3E03EF04B
:1011C10074D12DF58274003C021250900002E0FEB1
:1011D100A3E0FF900000E0FCA3E0FDC39FFFEC9EB5
:1011E1004F7021ED4C701D740444007005FE7F208A
:1011F10080047E007F109001D4E02FF09001D3E0B5
:101201003EF0803D900004E0FEA3E0FF4E701090A0
:1012110001D4E004F0702A9001D3E004F08022EFC1
:1012210064014E70089001D4E02440800CEF640208
:101231004E700E9001D4E02408F09001D3E0340008
:10124100F0900000E0FEA3E024D2F58274003EF5A8
:0E12510083E0F5A09001D3A3E0F58002001E1B
:10002E00E49002C3F09002C3E0FFC39408400302C1
:10003E00061CE4F58074D22FF582E43400F583E0DB
:10004E00F5A0E49002C2F0FFEFFDC39001D2E09D57
:10005E007480F89001D1E0648098500302060AEF94
:10006E0025E024F2F582E43401F583E0FCA3E0FD03
:10007E009002C3E0FEFBED6B7001EC6003020132F7
:10008E00EF25E02456F582E43402F583E0FCA3E08C
:10009E004C6003020132EF14C394004033EE24018E
:1000AE00FDE433FCEF25E024F0F582E43401F58322
:1000BE00E0FAA3E0B50519EAB50415EF25E02454DE
:1000CE00F582E43402F583E0FCA3E04C7002804E2E
:1000DE00EF2401FDE433FCC39001D2E09DEC64807B
:1000EE00F89001D1E0648098403A9002C3E0240178
:1000FE00FDE433FCEF25E024F4F582E43401F583CE
:10010E00E0FAA3E0B5051DEAB50419EF25E0245881
:10011E00F582E43402F583E0FCA3E04C7006900215
:10012E00C2E004F09002C3E0FE6407600302020B1B
:10013E00EE2401FDE433FCEF25E024F2F582E434F5
:10014E0001F583E0FAA3E06D7002EA6C600302022F
:10015E000BEF25E02456F582E43402F583E0FCA390
:10016E00E04C600302020BEF14C39400403890027F
:10017E00C3E02401FDE433FCEF25E024F0F582E436
:10018E003401F583E0FAA3E0B5051BEAB50417EFD9
:10019E0025E02454F582E43402F583E0FCA3E06408
:1001AE00014C70028050EF2401FDE433FCC390013A
:1001BE00D2E09DEC6480F89001D1E0648098403DDF
:1001CE009002C3E02401FDE433FCEF25E024F4F5B6
:1001DE0082E43401F583E0FAA3E0B50520EAB50424
:1001EE001CEF25E02458F582E43402F583E0FCA3ED
:1001FE00E064014C70079002C2E02402F09002C34A
:10020E00E0FE640760030202E6EE2401FDE433FC27
:10021E00EF25E024F2F582E43401F583E0FAA3E061
:10022E006D7002EA6C60030202E6EF25E02456F5DB
:10023E0082E43402F583E0FCA3E064014C60030227
:10024E0002E6EF14C3940040389002C3E02401FD8F
:10025E00E433FCEF25E024F0F582E43401F583E08D
:10026E00FAA3E0B5051BEAB50417EF25E02454F513
:10027E0082E43402F583E0FCA3E064024C70028059
:10028E0050EF2401FDE433FCC39001D2E09DEC64F9
:10029E0080F89001D1E0648098403D9002C3E02444
:1002AE0001FDE433FCEF25E024F4F582E43401F59E
:1002BE0083E0FAA3E0B50520EAB5041CEF25E0249F
:1002CE0058F582E43402F583E0FCA3E064024C703E
:1002DE00079002C2E02404F09002C3E0FE2401FD68
:1002EE00E433FCEF25E024F2F582E43401F583E0FB
:1002FE00FAA3E06D7002EA6C60030203B4EF25E02E
:10030E002456F582E43402F583E0FCA3E064024C4B
:10031E0060030203B4EF14C394004034EF25E024CD
:10032E00F0F582E43401F583E0FCA3E0FDEEFB7A08
:10033E0000EDB5031BEAB50417EF25E02454F58252
:10034E00E43402F583E0FCA3E064024C7002804FBB
:10035E00EF2401FDE433FCC39001D2E09DEC6480F8
:10036E00F89001D1E0648098403CEF25E024F4F54C
:10037E0082E43401F583E0FCA3E0FD9002C3E0FBD0
:10038E007A00EDB50320EAB5041CEF25E02458F5FC
:10039E0082E43402F583E0FCA3E064024C70079023
:1003AE0002C2E02408F0EF25E024F2F582E43401E5
:1003BE00F583E0FCA3E0FD9002C3E0FB7A00ED6B59
:1003CE007001EC6003020479EF25E02456F582E417
:1003DE003402F583E0FCA3E064024C60030204796E
:1003EE00EF14C39400402EEF25E024F0F582E434A0
:1003FE0001F583E0FCA3E0B5031BEAB50417EF2576
:10040E00E02454F582E43402F583E0FCA3E06401B9
:10041E004C7002804FEF2401FDE433FCC39001D2F7
:10042E00E09DEC6480F89001D1E0648098403CEF50
:10043E0025E024F4F582E43401F583E0FCA3E0FD2D
:10044E009002C3E0FB7A00EDB50320EAB5041CEF81
:10045E0025E02458F582E43402F583E0FCA3E06441
:10046E00014C70079002C2E02410F0EF25E024F258
:10047E00F582E43401F583E0FCA3E0FD9002C3E0D5
:10048E00FB7A00ED6B7001EC600302053AEF25E09C
:10049E002456F582E43402F583E0FCA3E064014CBB
:1004AE00600302053AEF14C39400402CEF25E024BC
:1004BE00F0F582E43401F583E0FCA3E0B50319EA1C
:1004CE00B50415EF25E02454F582E43402F583E0FB
:1004DE00FCA3E04C7002804DEF2401FDE433FCC31D
:1004EE009001D2E09DEC6480F89001D1E064809898
:1004FE00403AEF25E024F4F582E43401F583E0FC84
:10050E00A3E0FD9002C3E0FB7A00EDB5031EEAB551
:10051E00041AEF25E02458F582E43402F583E0FC5A
:10052E00A3E04C70079002C2E02420F0EF25E024F7
:10053E00F2F582E43401F583E0FCA3E0FD9002C302
:10054E00E0FEFBED6B7001EC6003020606EF25E0AA
:10055E002456F582E43402F583E0FCA3E064014CFA
:10056E006003020606EF14C394004035EE2401FD2D
:10057E00E433FCEF25E024F0F582E43401F583E06A
:10058E00FAA3E0B5051BEAB50417EF25E02454F5F0
:10059E0082E43402F583E0FCA3E064014C70028037
:1005AE0050EF2401FDE433FCC39001D2E09DEC64D6
:1005BE0080F89001D1E0648098403D9002C3E02421
:1005CE0001FDE433FCEF25E024F4F582E43401F57B
:1005DE0083E0FAA3E0B50520EAB5041CEF25E0247C
:1005EE0058F582E43402F583E0FCA3E064014C701C
:1005FE00079002C2E02440F00F0200569002C2E0C3
:0E060E00F58012001E9002C3E004F0020033DB
:01061C0022BB
:04162400EF4E602104
:101628009002C2740BF0A374BEF09002C3E014F0F1
:0F16380070F89002C2E014F070F0EF1F70DE1E29
:0316470080DB2223
:08001E007F027E0FDEFEDFFC15
:0100260022B7
:030000000212F3F6
:0C12F300787FE4F6D8FD75810702133AFD
:100F1900BC000BBE0029EF8DF084FFADF022E4CCBC
:100F2900F875F008EF2FFFEE33FEEC33FCEE9DEC85
:100F3900984005FCEE9DFE0FD5F0E9E4CEFD22EDCB
:100F4900F8F5F0EE8420D21CFEADF075F008EF2F15
:100F5900FFED33FD4007985006D5F0F222C398FD06
:050F69000FD5F0EA22A3
:100F6E00C5F0F8A3E028F0C5F0F8E582158270020E
:060F7E001583E038F022AB
:1015B600C2D5E830E70FB2D5E4C39BFBE49AFAE460
:1015C60099F9E498F8EC30E717B2D51215EC120F3A
:1015D600C0E4C39BFBE49AFAE499F9E498F8800323
:1015E600120FC030D50DE4C39FFFE49EFEE49DFDBF
:0415F600E49CFC2253
:1012FF00020003E493A3F8E493A34003F68001F202
:10130F0008DFF48029E493A3F85407240CC8C333EF
:10131F00C4540F4420C8834004F456800146F6DFBE
:10132F00E4800B0102040810204080901052E47EEC
:10133F00019360BCA3FF543F30E509541FFEE493B3
:10134F00A360010ECF54C025E060A840B8E493A37A
:10135F00FAE493A3F8E493A3C8C582C8CAC583CAA5
:10136F00F0A3C8C582C8CAC583CADFE9DEE780BE5D
:01118000006E
:100F840075F008758200EF2FFFEE33FECD33CDCC24
:100F940033CCC58233C5829BED9AEC99E5829840A7
:100FA4000CF582EE9BFEED9AFDEC99FC0FD5F0D684
:100FB400E4CEFBE4CDFAE4CCF9A88222B800C1B9AE
:100FC4000059BA002DEC8BF084CFCECDFCE5F0CBEC
:100FD400F97818EF2FFFEE33FEED33FDEC33FCEB25
:100FE40033FB10D703994004EB99FB0FD8E5E4F9E0
:100FF400FA227818EF2FFFEE33FEED33FDEC33FCCD
:10100400C933C910D7059BE99A4007EC9BFCE99AC0
:10101400F90FD8E0E4C9FAE4CCFB2275F010EF2F05
:10102400FFEE33FEED33FDCC33CCC833C810D70705
:101034009BEC9AE899400AED9BFDEC9AFCE899F840
:0E1044000FD5F0DAE4CDFBE4CCFAE4C8F922D3
:00000001FF
