:100F28005E01A80000077406A505EB059904FC04FA
:100F38007003F403BC035402F702CC027E023801AA
:100F4800FA60CC00DC00020A010A010A010A010C5D
:100F5800010C0300040002090109010A010901004A
:100F6800070002080108010801080108010A020A2D
:100F7800010A010B020A0300080801080109010817
:100F88000109020002080108020601060105030022
:100F980008090109010A010B010B020002090108F5
:100FA800010A010900090200060A010A010A010AE8
:100FB800010C010C0300040A010A010C010C020ACD
:100FC800010006080108010801080108010A020ACF
:100FD8000100010A010A010A020A010A010B010AB9
:100FE80004000608010801090108010802060108B1
:100FF800010802060105030005090109010A010BA0
:10100800010B0200010A01090108010A0109010096
:10101800004800D200010203040506074200DA0076
:10102800004201CB00004201CF00034201CD000184
:1011AE009000DAE07002A3E0600302123FD28E904C
:1011BE0001D3E0FEA3E024DCF58274003EF583E06B
:1011CE0025E024A8F582E43401F583E0FEA3E0FBDC
:1011DE00E4C39BFFE49EFE74019400FDE49400FCC6
:1011EE00E4FB7A01F9F81215038F8D9001D3E0FE1E
:1011FE00A3E024DCF58274003EF583E025E024A80C
:10120E00F582E43401F583E0FEA3E0FBE4C39BFF2B
:10121E00E49EFE74019400FDE49400FCE4FB7A016C
:10122E00F9F8121503AF038F8B9000DAE4F0A304E4
:02123E00F0229C
:1013CA009001CBE07002A3E0706AD28E9000DFE059
:1013DA0025E024A8F582E43401F583E0FEA3E0FBCE
:1013EA00E4C39BFFE49EFE74019400FDE49400FCB8
:1013FA00E4FB7A01F9F81215038F8D9000DFE025DE
:10140A00E024A8F582E43401F583E0FEA3E0FBE4DE
:10141A00C39BFFE49EFE74019400FDE49400FCE487
:10142A00FB7A01F9F8121503AF038F8B9001CBE415
:05143A00F0A304F02204
:1014AB00E4F5937594FFF59575960875B210F5B143
:1014BB00D2AF12156D12158212000E12134CE4905E
:1014CB000000F0A3F0A3F0A304F0A3E4F0A304F056
:1014DB00A3E4F0A304F09001D9E4F0A304F0E490AA
:1014EB0001D5F0A3F0A3F0A3F0C2B49001D3F0A305
:0814FB00F0900008F0A3F022BC
:03002B00020027A9
:0400270053BCEF32A5
:1011170012094B9001D9E07002A3E0600812002E7B
:1011270012103980EE9001D5E07002A3E0606FE401
:101137009001CAF09001CAE0FFC39001D0E09F740C
:1011470080F89001CFE064809840539001CAE02571
:10115700E0240AF582E43400F583E0FCA3E0FDEF28
:1011670025E024DDF582E43401F583ECF0A3EDF00E
:101177009001CAE0FF25E0246EF582E43400F58390
:10118700E0FCA3E0FDEF25E02441F582E43402F51D
:1011970083ECF0A3EDF09001CAE004F08096120012
:0711A7002E1211AE02111A15
:03001B0002158744
:03158700B2B432C9
:03000B0002061DCD
:10061D00C0E0C0F0C083C082C0D075D000C000C0A3
:10062D0001C002C003C004C005C006C007758CFC24
:10063D00758A189001CBE07002A3E0602C90000940
:10064D00E004F07006900008E004F0D3900009E09B
:10065D0094B4900008E09400400F9001CBE4F0A317
:10066D00F0900008F0A3F0C28E9000DAE07002A3C3
:10067D00E0603F900009E004F07006900008E0048F
:10068D00F09001D3E0FEA3E024DCF58274003EF58A
:10069D0083E075F0B4A4FFD3900009E09F900008AB
:1006AD00E095F0400D9000DAE4F0A3F0900008F032
:1006BD00A3F09001C8E0B4030BA3E0B4E806121256
:1006CD00CC12143F9001D9E07002A3E0700302092F
:1006DD00309001D7E07002A3E0602A9001DCE004C5
:1006ED00F070069001DBE004F0D39001DCE0942C77
:1006FD009001DBE09401400D9001D7E4F0A3F09060
:10070D0001DBF0A3F09001C8E0FAA3E0FB7C007DD3
:10071D0032FFAE02120E05ED4C60030207E49001AC
:10072D00D7E07002A3E060030207E49001CDE0FE84
:10073D00A3E0FF64024E600D20B20A9001CDE4F0FB
:10074D00A37403800E20B316EF4E60129001CDE41A
:10075D00F0A304F09001D7E4F0A304F080799001A8
:10076D00C674FFF0A3F0E5BD5403FFADBEED9001DF
:10077D00C6CFF0A3EFF09001C6E0FEA3E07807CE60
:10078D00A2E713CE13D8F8FF9001C6EEF0A3EFF059
:10079D0064034E70189001CDE07004A3E064016015
:1007AD000C9001CDE4F0A3F09001D780239001C609
:1007BD00E07002A3E0701D9001CDE07004A3E06431
:1007CD000360119001CDE4F0A37402F09001D7E421
:1007DD00F0A304F043BC08EB64E87003EA64036023
:0407ED0003020922D8
:1007F1009002A5F09002A5E0FFC39001D0E09F74A4
:1008010080F89001CFE064809840539002A5E025E4
:10081100E024DDF582E43401F583E0FCA3E0FDEFA3
:1008210025E0240AF582E43400F583ECF0A3EDF031
:100831009002A5E0FF25E02441F582E43402F5832E
:10084100E0FCA3E0FDEF25E0246EF582E43400F541
:1008510083ECF0A3EDF09002A5E004F08096120C79
:10086100589001CFA3E09002A5F09002A5E0D394A7
:10087100004051E0FF25E024DBF582E43401F583FB
:10088100E0FCA3E0FDEF25E024DDF582E43401F591
:1008910083ECF0A3EDF09002A5E0FF25E0243FF505
:1008A10082E43402F583E0FCA3E0FDEF25E024417E
:1008B100F582E43402F583ECF0A3EDF09002A5E0BB
:1008C10014F080A69001CDE0FEA3E0FF64034E701A
:1008D100109001DEE004F0703E9001DDE004F08054
:1008E10036EF64024E700C9001DEE024FFF09001BF
:1008F100DD8020EF64014E7010900242E004F07040
:1009010016900241E004F0800E900242E024FFF0D4
:10091100900241E034FFF01213CA9001C8E4F0A341
:01092100F0E5
:100922009001C9E004F070069001C8E004F0D0071D
:10093200D006D005D004D003D002D001D000D0D050
:09094200D082D083D0F0D0E03265
:060003001214AB021117FC
:10134C00E49001CAF09001CAE0FFC39431502AEF37
:10135C0025E02441F582E43402F58374FFF0A3F018
:10136C00EF25E024DDF582E43401F58374FFF0A36E
:10137C00F09001CAE004F080CC9001DDE4F0A3749D
:10138C0003F0A3E4F0A37402F0A3E4F0A304F0E4EC
:10139C00A3F0A3F0900247F0A3F0900245F0A3F065
:1013AC00900243F0A3F0900241F0A3F09001CFF033
:0E13BC00A37403F09001CDE4F0A37403F022BB
:10143F009001CA7401F09001CAE0FFFDD39001D072
:10144F00E09D7480F89001CFE0648098404DEF25C7
:10145F00E024DDF582E43401F583E0FEA3E0FF90A4
:10146F0001DDE0B5062DA3E0B507289001CAE02500
:10147F00E02441F582E43402F583E0FEA3E0FF901F
:10148F000241E0B5060DA3E0B50708E49001D9F0DD
:0C149F00A3F0229001CAE004F0809B2220
:10156D00758901758CFC758A18D28CD2A9E490010D
:05157D00C8F0A3F022FC
:05158200D2ABD28E2265
:0C000E00759D8075BC87439720D2AD2201
:1012CC00E49001CAF09001CAE0FFFDC39001D0E0A8
:1012DC009D7480F89001CFE06480984062EF25E027
:1012EC0024DDF582E43401F583E0FEA3E0FFC3EED8
:1012FC00648094804032D3EF9408EE6480948050E4
:10130C00279001CAE025E02441F582E43402F583FC
:10131C00E0FEA3E0FFC3EE64809480400BD3EF9417
:10132C0002EE64809480400FE49001D9F0A3F09019
:10133C0001D5F0A304F0229001CAE004F0808622CB
:03094B00E4FFFEC8
:10094E00E58C75F00384ADF09002ADE4F0A3EDF00C
:10095E00E58A75F00984ADF0A3E4F0A3EDF0E58C23
:10096E0013135401FDA3E4F0A3EDF0E49001CAF0DB
:10097E009001CAE0FDD39001D0E09D7480F8900103
:10098E00CFE06480985003020BED9001CAE025E0A1
:10099E0024DFF582E43401F583E0FAA3E0FBED25D4
:1009AE00E024DDF582E43401F583E0FCA3E0C39B93
:1009BE00FDEC9AFCD3ED9400EC648094804054904E
:1009CE0001CDE07002A3E06003020BAB9001CAE020
:1009DE00F925E024DFF582E43401F583E0FCA3E0A1
:1009EE00FD9002AFE06C7003A3E06D6003020BABF1
:1009FE00E925E02443F582E43402F583E0FCA3E02C
:100A0E00FD9002ADE06C7003A3E06D6003020BABD2
:100A1E00020BED9001CAE0FD25E024DFF582E434FF
:100A2E0001F583E0FAA3E0FBED25E024DDF582E499
:100A3E003401F583E0FCA3E0C39BEC9AC36480947D
:100A4E008050549001CDE07002A3E06003020BAB26
:100A5E009001CAE0F925E024DDF582E43401F58346
:100A6E00E0FCA3E0FD9002AFE06C7003A3E06D60CC
:100A7E0003020BABE925E02441F582E43402F58351
:100A8E00E0FCA3E0FD9002ADE06C7003A3E06D60AE
:100A9E0003020BAB020BED9001CAE0FD25E02443EF
:100AAE00F582E43402F583E0FAA3E0FBED25E024C1
:100ABE0041F582E43402F583E0FCA3E0C39BFDEC38
:100ACE009AFCD3ED9400EC6480948040569001CD56
:100ADE00E07004A3E064016003020BAB9001CAE076
:100AEE00F925E024DFF582E43401F583E0FCA3E090
:100AFE00FD9002AFE06C7003A3E06D6003020BABE0
:100B0E00E925E02443F582E43402F583E0FCA3E01A
:100B1E00FD9002ADE06C7003A3E06D6003020BABC1
:100B2E00020BED9001CAE0FD25E02443F582E4348A
:100B3E0002F583E0FAA3E0FBED25E02441F582E423
:100B4E003402F583E0FCA3E0C39BEC9AC36480946B
:100B5E0080504A9001CDE07004A3E06401703E9095
:100B6E0001CAE0F925E024DDF582E43401F583E0E5
:100B7E00FCA3E0FD9002AFE0B50422A3E0B5051D95
:100B8E00E925E02441F582E43402F583E0FCA3E09C
:100B9E00FD9002ADE06C7003A3E06D60429001CF5A
:100BAE00A3E0149001CAF0602D9001CDE0FCA3E00B
:100BBE00FD4C700C9002AFE07004A3E06408601668
:100BCE00ED64014C700C9002ADE07004A3E0640281
:100BDE0060047E007F019001CAE004F002097EEFFE
:100BEE0064014E600302094E9002AFE0FEA3E0FFE7
:100BFE00900000EEF0A3EFF09001CDE0FCA3E0FD3D
:100C0E004C7002800E9002B0E02401FF9002AFE023
:100C1E003400FE900002EEF0A3EFF09002ADE0FE85
:100C2E00A3E0FF900004EEF0A3EFF0ED64014C7032
:100C3E0002800E9002AEE02401FF9002ADE034007F
:090C4E00FE900006EEF0A3EFF0A9
:010C5700227A
:100C5800900000E0FEA3E0FF9001DDE06E7003A3CA
:100C6800E06F6003020D2D900004E0FCA3E0FD900E
:100C78000241E06C7003A3E06D6003020D2D90014A
:100C8800CDE07004A3E064036003020D2DC390005F
:100C980003E09FFF900002E09EFEEF64014E6003B8
:100CA800020D2D9001D0E004F070069001CFE00411
:100CB800F09001CFA3E09002A6F09002A6E0D394B2
:100CC800004051E0FF25E024DBF582E43401F583A0
:100CD800E0FCA3E0FDEF25E024DDF582E43401F536
:100CE80083ECF0A3EDF09002A6E0FF25E0243FF5A9
:100CF80082E43402F583E0FCA3E0FDEF25E0244123
:100D0800F582E43402F583ECF0A3EDF09002A6E05E
:100D180014F080A69001DEE004F070069001DDE09A
:100D280004F012094B900002E0FEA3E0FF9001DD01
:100D3800E06E7003A3E06F6003020E04900004E00D
:100D4800FCA3E0FD900241E06C7003A3E06D60033A
:100D5800020E049001CDE07004A3E0640260030277
:100D68000E04900000E0FCA3E0FDC3EF9DFFEE9CA5
:100D7800FEEF64014E6003020E049001D0E004F01F
:100D880070069001CFE004F09001CFA3E09002A696
:100D9800F09002A6E0D394004051E0FF25E024DB68
:100DA800F582E43401F583E0FCA3E0FDEF25E024BF
:100DB800DDF582E43401F583ECF0A3EDF09002A6B2
:100DC800E0FF25E0243FF582E43402F583E0FCA34C
:100DD800E0FDEF25E02441F582E43402F583ECF0F0
:100DE800A3EDF09002A6E014F080A69001DEE024C6
:0C0DF800FFF09001DDE034FFF012094B29
:010E040022CB
:10103900E4F5809001D1F0A3F0900002E0FEA3E076
:10104900FF900000E0FCA3E0FDC39FFFEC9E4F7002
:101059002AED4C6026740444007005FE7F2080044C
:101069007E007F109001D2E02FF09001D1E03EF098
:1010790074D12DF58274003C021108900002E0FE43
:10108900A3E0FF900000E0FCA3E0FDC39FFFEC9EFE
:101099004F7021ED4C701D740444007005FE7F20D3
:1010A90080047E007F109001D2E02FF09001D1E002
:1010B9003EF0803D900004E0FEA3E0FF4E701090EA
:1010C90001D2E004F0702A9001D1E004F08022EF0F
:1010D90064014E70089001D2E02440800CEF640254
:1010E9004E700E9001D2E02408F09001D1E0340056
:1010F900F0900000E0FEA3E024D2F58274003EF5F2
:0E11090083E0F5A09001D1A3E0F58002001E66
:10002E00E49002AEF09002AEE0FFC39408400302EB
:10003E00061CE4F58074D22FF582E43400F583E0DB
:10004E00F5A0E49002ADF0FFEFFDC39001D0E09D6E
:10005E007480F89001CFE0648098500302060AEF96
:10006E0025E024DDF582E43401F583E0FCA3E0FD18
:10007E009002AEE0FEFBED6B7001EC60030201320C
:10008E00EF25E02441F582E43402F583E0FCA3E0A1
:10009E004C6003020132EF14C394004033EE24018E
:1000AE00FDE433FCEF25E024DBF582E43401F58337
:1000BE00E0FAA3E0B50519EAB50415EF25E0243FF3
:1000CE00F582E43402F583E0FCA3E04C7002804E2E
:1000DE00EF2401FDE433FCC39001D0E09DEC64807D
:1000EE00F89001CFE0648098403A9002AEE024018F
:1000FE00FDE433FCEF25E024DFF582E43401F583E3
:10010E00E0FAA3E0B5051DEAB50419EF25E0244396
:10011E00F582E43402F583E0FCA3E04C7006900215
:10012E00ADE004F09002AEE0FE6407600302020B45
:10013E00EE2401FDE433FCEF25E024DDF582E4340A
:10014E0001F583E0FAA3E06D7002EA6C600302022F
:10015E000BEF25E02441F582E43402F583E0FCA3A5
:10016E00E04C600302020BEF14C39400403890027F
:10017E00AEE02401FDE433FCEF25E024DBF582E460
:10018E003401F583E0FAA3E0B5051BEAB50417EFD9
:10019E0025E0243FF582E43402F583E0FCA3E0641D
:1001AE00014C70028050EF2401FDE433FCC390013A
:1001BE00D0E09DEC6480F89001CFE0648098403DE3
:1001CE009002AEE02401FDE433FCEF25E024DFF5E0
:1001DE0082E43401F583E0FAA3E0B50520EAB50424
:1001EE001CEF25E02443F582E43402F583E0FCA302
:1001FE00E064014C70079002ADE02402F09002AE74
:10020E00E0FE640760030202E6EE2401FDE433FC27
:10021E00EF25E024DDF582E43401F583E0FAA3E076
:10022E006D7002EA6C60030202E6EF25E02441F5F0
:10023E0082E43402F583E0FCA3E064014C60030227
:10024E0002E6EF14C3940040389002AEE02401FDA4
:10025E00E433FCEF25E024DBF582E43401F583E0A2
:10026E00FAA3E0B5051BEAB50417EF25E0243FF528
:10027E0082E43402F583E0FCA3E064024C70028059
:10028E0050EF2401FDE433FCC39001D0E09DEC64FB
:10029E0080F89001CFE0648098403D9002AEE0245B
:1002AE0001FDE433FCEF25E024DFF582E43401F5B3
:1002BE0083E0FAA3E0B50520EAB5041CEF25E0249F
:1002CE0043F582E43402F583E0FCA3E064024C7053
:1002DE00079002ADE02404F09002AEE0FE2401FD92
:1002EE00E433FCEF25E024DDF582E43401F583E010
:1002FE00FAA3E06D7002EA6C60030203B4EF25E02E
:10030E002441F582E43402F583E0FCA3E064024C60
:10031E0060030203B4EF14C394004034EF25E024CD
:10032E00DBF582E43401F583E0FCA3E0FDEEFB7A1D
:10033E0000EDB5031BEAB50417EF25E0243FF58267
:10034E00E43402F583E0FCA3E064024C7002804FBB
:10035E00EF2401FDE433FCC39001D0E09DEC6480FA
:10036E00F89001CFE0648098403CEF25E024DFF563
:10037E0082E43401F583E0FCA3E0FD9002AEE0FBE5
:10038E007A00EDB50320EAB5041CEF25E02443F511
:10039E0082E43402F583E0FCA3E064024C70079023
:1003AE0002ADE02408F0EF25E024DDF582E434010F
:1003BE00F583E0FCA3E0FD9002AEE0FB7A00ED6B6E
:1003CE007001EC6003020479EF25E02441F582E42C
:1003DE003402F583E0FCA3E064024C60030204796E
:1003EE00EF14C39400402EEF25E024DBF582E434B5
:1003FE0001F583E0FCA3E0B5031BEAB50417EF2576
:10040E00E0243FF582E43402F583E0FCA3E06401CE
:10041E004C7002804FEF2401FDE433FCC39001D0F9
:10042E00E09DEC6480F89001CFE0648098403CEF52
:10043E0025E024DFF582E43401F583E0FCA3E0FD42
:10044E009002AEE0FB7A00EDB50320EAB5041CEF96
:10045E0025E02443F582E43402F583E0FCA3E06456
:10046E00014C70079002ADE02410F0EF25E024DD82
:10047E00F582E43401F583E0FCA3E0FD9002AEE0EA
:10048E00FB7A00ED6B7001EC600302053AEF25E09C
:10049E002441F582E43402F583E0FCA3E064014CD0
:1004AE00600302053AEF14C39400402CEF25E024BC
:1004BE00DBF582E43401F583E0FCA3E0B50319EA31
:1004CE00B50415EF25E0243FF582E43402F583E010
:1004DE00FCA3E04C7002804DEF2401FDE433FCC31D
:1004EE009001D0E09DEC6480F89001CFE06480989C
:1004FE00403AEF25E024DFF582E43401F583E0FC99
:10050E00A3E0FD9002AEE0FB7A00EDB5031EEAB566
:10051E00041AEF25E02443F582E43402F583E0FC6F
:10052E00A3E04C70079002ADE02420F0EF25E0240C
:10053E00DDF582E43401F583E0FCA3E0FD9002AE2C
:10054E00E0FEFBED6B7001EC6003020606EF25E0AA
:10055E002441F582E43402F583E0FCA3E064014C0F
:10056E006003020606EF14C394004035EE2401FD2D
:10057E00E433FCEF25E024DBF582E43401F583E07F
:10058E00FAA3E0B5051BEAB50417EF25E0243FF505
:10059E0082E43402F583E0FCA3E064014C70028037
:1005AE0050EF2401FDE433FCC39001D0E09DEC64D8
:1005BE0080F89001CFE0648098403D9002AEE02438
:1005CE0001FDE433FCEF25E024DFF582E43401F590
:1005DE0083E0FAA3E0B50520EAB5041CEF25E0247C
:1005EE0043F582E43402F583E0FCA3E064014C7031
:1005FE00079002ADE02440F00F0200569002ADE0ED
:0E060E00F58012001E9002AEE004F0020033F0
:01061C0022BB
:04154700EF4E6021E2
:10154B009002B3740BF0A374BEF09002B4E014F0ED
:0F155B0070F89002B3E014F070F0EF1F70DE1E16
:03156A0080DB2201
:08001E007F027E0FDEFEDFFC15
:0100260022B7
:03000000021240A9
:0C124000787FE4F6D8FD75810702128764
:100E0500BC000BBE0029EF8DF084FFADF022E4CCD1
:100E1500F875F008EF2FFFEE33FEEC33FCEE9DEC9A
:100E2500984005FCEE9DFE0FD5F0E9E4CEFD22EDE0
:100E3500F8F5F0EE8420D21CFEADF075F008EF2F2A
:100E4500FFED33FD4007985006D5F0F222C398FD1B
:050E55000FD5F0EA22B8
:10150300C2D5E830E70FB2D5E4C39BFBE49AFAE413
:1015130099F9E498F8EC30E717B2D5121539120EA1
:1015230096E4C39BFBE49AFAE499F9E498F8800300
:10153300120E9630D50DE4C39FFFE49EFEE49DFD9D
:04154300E49CFC2206
:10124C00020003E493A3F8E493A34003F68001F2B5
:10125C0008DFF48029E493A3F85407240CC8C333A3
:10126C00C4540F4420C8834004F456800146F6DF72
:10127C00E4800B0102040810204080900F28E47ECB
:10128C00019360BCA3FF543F30E509541FFEE49367
:10129C00A360010ECF54C025E060A840B8E493A32E
:1012AC00FAE493A3F8E493A3C8C582C8CAC583CA59
:1012BC00F0A3C8C582C8CAC583CADFE9DEE780BE11
:0110380000B7
:100E5A0075F008758200EF2FFFEE33FECD33CDCC4F
:100E6A0033CCC58233C5829BED9AEC99E5829840D2
:100E7A000CF582EE9BFEED9AFDEC99FC0FD5F0D6AF
:100E8A00E4CEFBE4CDFAE4CCF9A88222B800C1B9D9
:100E9A000059BA002DEC8BF084CFCECDFCE5F0CB17
:100EAA00F97818EF2FFFEE33FEED33FDEC33FCEB50
:100EBA0033FB10D703994004EB99FB0FD8E5E4F90B
:100ECA00FA227818EF2FFFEE33FEED33FDEC33FCF8
:100EDA00C933C910D7059BE99A4007EC9BFCE99AEC
:100EEA00F90FD8E0E4C9FAE4CCFB2275F010EF2F31
:100EFA00FFEE33FEED33FDCC33CCC833C810D70731
:100F0A009BEC9AE899400AED9BFDEC9AFCE899F86B
:0E0F1A000FD5F0DAE4CDFBE4CCFAE4C8F922FE
:00000001FF
