:100E4E004C000903E80384032002BC025801F45E3F
:100E5E0001B70000077406A505EB059904FC0470A4
:100E6E0003F403BC035402F702CC027E023801FAEB
:100E7E0060CC00EB0A010A010A010A010C010C0305
:100E8E00090109010A010901080108010801080107
:100E9E0008010A020A010A010B020A0300010801F5
:100EAE0008010901080109020001080108020601F2
:100EBE00060105030001090109010A010B010B02DC
:100ECE000001090108010A010900090200010A01D5
:100EDE000A010A010A010C010C0300040A010A01AD
:100EEE000C010C020A0100060801080108010801A4
:100EFE0008010A020A0100010A010A010A020A0196
:100F0E000A010B010A040002080108010901080187
:100F1E000802060108010802060105030002090184
:100F2E0009010A010B010B0200010A010901080166
:100F3E000A0109010000000000000000000000008E
:100F4E005101EC3F065B4F666D7D077F6F777C39F5
:100F5E005E7971004800E1000102030405060742B4
:100F6E0000E900004201DE00004201E400034201FC
:100F7E00E200014201E800004201D70001410008F1
:010F8E000062
:10157700E4F5937594FFF59575960875B210F5B176
:10158700D2AF12002E1217AB12000E1217991214B7
:1015970084E4900000F0A3F0A3F0A304F0A3E4F028
:1015A700A304F0A3E4F0A304F0900201E4F0A30481
:1015B700F0E49001FDF0A3F0A3F0A3F0C2B4900112
:1015C700EAF0A3F0900015F0A3F09000DFF0A30479
:1015D700F0900009E0FFA3E09001E0CFF0A3EFF067
:0115E70022E1
:1012E400120994900201E07002A3E0600812004623
:1012F40012120680EE9001FDE07002A3E0606FE43C
:101304009001DDF09001DDE0FFC39001E5E09F7402
:1013140080F89001E4E064809840539001DDE0257A
:10132400E02417F582E43400F583E0FCA3E0FDEF4C
:1013340025E02405F582E43402F583ECF0A3EDF016
:101344009001DDE0FF25E0247BF582E43400F583A1
:10135400E0FCA3E0FDEF25E02469F582E43402F526
:1013640083ECF0A3EDF09001DDE004F08096120F21
:04137400900212E7EA
:03002B00020027A9
:0400270053BCEF32A5
:03001B000217B019
:0317B000B2B4329E
:03000B00020635B5
:10063500C0E0C0F0C083C082C0D075D000C000C08B
:1006450001C002C003C004C005C006C007758CFC0C
:10065500758A189001E0E0FEA3E0FF9001DBE0B5AC
:10066500060BA3E0B507061214041215E890020163
:10067500E07002A3E070419000DFE07002A3E0604B
:10068500031200469001DBE0FEA3E0FFD394B8EE31
:10069500940B40079000DFE4F0A3F09000DFE070DA
:1006A50002A3E07013C3EF9432EE9400400A900168
:1006B500DBE4F0A3F0121749900201E07002A3E019
:1006C500700302096B9001DEE07002A3E0602C90DC
:1006D5000016E004F07006900015E004F0D39000D9
:1006E50016E094B4900015E09400400F9001DEE40C
:1006F500F0A3F0900015F0A3F0C28E9001FFE0701A
:1007050002A3E0602A900204E004F0700690020360
:10071500E004F0D3900204E0942C900203E09401ED
:10072500400D9001FFE4F0A3F0900203F0A3F090D8
:1007350001DBE0FAA3E0FB7C007D32FFAE02121084
:10074500CDED4C60030208069001FFE07002A3E0C6
:1007550060030208069001E2E0FEA3E0FF64024E9A
:10076500600D20B20A9001E2E4F0A37403800E202C
:10077500B316EF4E60129001E2E4F0A304F090018D
:10078500FFE4F0A304F080799001D974FFF0A3F0A1
:10079500E5BD5403FFADBEED9001D9CFF0A3EFF059
:1007A5009001D9E0FEA3E07807CEA2E713CE13D8D7
:1007B500F8FF9001D9EEF0A3EFF064034E701890A6
:1007C50001E2E07004A3E06401600C9001E2E4F052
:1007D500A3F09001FF80239001D9E07002A3E0709F
:1007E5001D9001E2E07004A3E0640360119001E252
:1007F500E4F0A37402F09001FFE4F0A304F043BC1D
:10080500089001E0E0FEA3E06B7002EA6E6003026F
:02081500096B6D
:100817009002CDF09002CDE0FFC39001E5E09F7418
:1008270080F89001E4E064809840539002CDE02581
:10083700E02405F582E43402F583E0FCA3E0FDEF54
:1008470025E02417F582E43400F583ECF0A3EDF0FE
:100857009002CDE0FF25E02469F582E43402F583B8
:10086700E0FCA3E0FDEF25E0247BF582E43400F50E
:1008770083ECF0A3EDF09002CDE004F08096120C2B
:10088700A19001E4A3E09002CDF09002CDE0D394D3
:10089700004051E0FF25E02403F582E43402F583AC
:1008A700E0FCA3E0FDEF25E02405F582E43402F542
:1008B70083ECF0A3EDF09002CDE0FF25E02467F58F
:1008C70082E43402F583E0FCA3E0FDEF25E0246930
:1008D700F582E43402F583ECF0A3EDF09002CDE06D
:1008E70014F080A69001E2E0FEA3E0FF64034E70DF
:1008F70010900206E004F0703E900205E004F080DC
:1009070036EF64024E700C900206E024FFF090026E
:10091700058020EF64014E701090026AE004F070C9
:1009270016900269E004F0800E90026AE024FFF05E
:10093700900269E034FFF09001D6E025E0FF9001D6
:10094700D5E033FE74092FF58274003EF583E0FF8E
:10095700A3E09001E0CFF0A3EFF01215029001DBC6
:04096700E4F0A3F025
:10096B009001DCE004F070069001DBE004F0D007AE
:10097B00D006D005D004D003D002D001D000D0D007
:09098B00D082D083D0F0D0E0321C
:060003001215770212E461
:10148400E49001DDF09001DDE0FFC39431502AEFD8
:1014940025E02469F582E43402F58374FFF0A3F0B7
:1014A400EF25E02405F582E43402F58374FFF0A30C
:1014B400F09001DDE004F080CC900205E4F0A37428
:1014C40003F0A3E4F0A37402F0A3E4F0A304F0E4B3
:1014D400A3F0A3F090026FF0A3F090026DF0A3F0DC
:1014E40090026BF0A3F0900269F0A3F09001E4F095
:0E14F400A37403F09001E2E4F0A37403F0226D
:10002E00758901758CFC758A18D28CD2A9E4900161
:05003E00DBF0A3F0223D
:0517AB00D2ABD28E223A
:10179900759A5075D6FE75D7E043AF01438E10D2C6
:0217A900AC2270
:0C000E00759D8075BC87439720D2AD2201
:1015E8009001DD7401F09001DDE0FFFDD39001E58D
:1015F800E09D7480F89001E4E0648098404DEF2508
:10160800E02405F582E43402F583E0FEA3E0FF90D0
:101618000205E0B5062DA3E0B507289001DDE02519
:10162800E02469F582E43402F583E0FEA3E0FF904C
:101638000269E0B5060DA3E0B50708E4900201F0E1
:0C164800A3F0229001DDE004F0809B2262
:1016AF00900008E0F4FF30E008E49001D5F0A3F0DB
:1016BF0022EF30E1099001D5E4F0A304F022EF30DE
:1016CF00E20A9001D5E4F0A37402F022EF30E30AAE
:1016DF009001D5E4F0A37403F022EF30E40A9001F7
:1016EF00D5E4F0A37404F022EF30E5099001D5E4BE
:0616FF00F0A37405F022C7
:030043000216544E
:10165400C0E0C0F0C083C082C0D075D000C000C05C
:1016640001C002C003C004C005C006C007E59A302B
:10167400E01E539AFE900008E59BF0D2A31216AF29
:10168400900008E0F4F5807F0A7E00121773C2A36D
:10169400D007D006D005D004D003D002D001D000AA
:0B16A400D0D0D082D083D0F0D0E03254
:10140400E49001DDF09001DDE0FFFDC39001E5E033
:101414009D7480F89001E4E06480984062EF25E0D8
:101424002405F582E43402F583E0FEA3E0FFC3EE75
:10143400648094804032D3EF9408EE6480948050AA
:10144400279001DDE025E02469F582E43402F58388
:10145400E0FEA3E0FFC3EE64809480400BD3EF94DE
:1014640002EE64809480400FE4900201F0A3F090B7
:1014740001FDF0A304F0229001DDE004F080862257
:10174900E4F5809001E8E0FEA3E024E1F58274006D
:101759003EF583E0F5A09001E4E0FEA3E024ECF57A
:0A1769008274013EF583E0F5802252
:100F90009001EAE0FEA3E024EBF58274003EF583C5
:100FA000E025E024B7F582E43401F583E0FEA3E018
:100FB000FF4E605DD28EE4C39FFFE49EFE740194F9
:100FC00000FDE49400FCE4FB7A01F9F81217058FA8
:100FD0008D9001EAE0FEA3E024EBF58274003EF57B
:100FE00083E025E024B7F582E43401F583E0FEA335
:100FF000E0FBE4C39BFFE49EFE74019400FDE494D7
:1010000000FCE4FB7A01F9F8121705AF038F8B801F
:1010100002C28E9001EAE475F001121122FE74EB17
:1010200025F0F58274003EF583E075F0B4A4FFAEC0
:10103000F0121773C28E9001EAE0FEA3E024EBF5F4
:101040008274003EF583E075F03CA4FFAEF0121709
:10105000739001EBE004F070069001EAE004F09078
:1010600001E8E0FEA3E0FFD39400EE64809480509A
:10107000089001D7E4F0A304F0C3EF9407EE648076
:1010800094804007E49001D7F0A3F09001D7E0707E
:1010900002A3E060109001E9E004F070169001E80E
:1010A000E004F0800E9001E9E024FFF09001E8E018
:1010B00034FFF09001EAE07004A3E064CC700D907E
:0D10C00001EAF0A3F07F887E13121773225F
:101502009001DEE07002A3E0706AD28E9000EEE0FD
:1015120025E024B7F582E43401F583E0FEA3E0FB85
:10152200E4C39BFFE49EFE74019400FDE49400FC7E
:10153200E4FB7A01F9F81217058F8D9000EEE02591
:10154200E024B7F582E43401F583E0FEA3E0FBE496
:10155200C39BFFE49EFE74019400FDE49400FCE44E
:10156200FB7A01F9F8121705AF038F8B9001DEE4C5
:05157200F0A304F022CB
:03099400E4FFFE7F
:10099700E58C75F00384ADF09002D7E4F0A3EDF099
:1009A700E58A75F00984ADF0A3E4F0A3EDF0E58CDA
:1009B70013135401FDA3E4F0A3EDF0E49001DDF07F
:1009C7009001DDE0FDD39001E5E09D7480F8900192
:1009D700E4E06480985003020C369001DDE025E0E6
:1009E7002407F582E43402F583E0FAA3E0FBED2562
:1009F700E02405F582E43402F583E0FCA3E0C39B21
:100A0700FDEC9AFCD3ED9400EC6480948040549004
:100A170001E2E07002A3E06003020BF49001DDE065
:100A2700F925E02407F582E43402F583E0FCA3E02E
:100A3700FD9002D9E06C7003A3E06D6003020BF434
:100A4700E925E0246BF582E43402F583E0FCA3E0BA
:100A5700FD9002D7E06C7003A3E06D6003020BF416
:100A6700020C369001DDE0FD25E02407F582E43431
:100A770002F583E0FAA3E0FBED25E02405F582E427
:100A87003402F583E0FCA3E0C39BEC9AC364809433
:100A97008050549001E2E07002A3E06003020BF47F
:100AA7009001DDE0F925E02405F582E43402F583C1
:100AB700E0FCA3E0FD9002D9E06C7003A3E06D6059
:100AC70003020BF4E925E02469F582E43402F58397
:100AD700E0FCA3E0FD9002D7E06C7003A3E06D603B
:100AE70003020BF4020C369001DDE0FD25E0246BD8
:100AF700F582E43402F583E0FAA3E0FBED25E02478
:100B070069F582E43402F583E0FCA3E0C39BFDECC6
:100B17009AFCD3ED9400EC6480948040569001E2F7
:100B2700E07004A3E064016003020BF49001DDE0D0
:100B3700F925E02407F582E43402F583E0FCA3E01D
:100B4700FD9002D9E06C7003A3E06D6003020BF423
:100B5700E925E0246BF582E43402F583E0FCA3E0A9
:100B6700FD9002D7E06C7003A3E06D6003020BF405
:100B7700020C369001DDE0FD25E0246BF582E434BC
:100B870002F583E0FAA3E0FBED25E02469F582E4B2
:100B97003402F583E0FCA3E0C39BEC9AC364809422
:100BA70080504A9001E2E07004A3E06401703E9037
:100BB70001DDE0F925E02405F582E43402F583E060
:100BC700FCA3E0FD9002D9E0B50422A3E0B5051D22
:100BD700E925E02469F582E43402F583E0FCA3E02B
:100BE700FD9002D7E06C7003A3E06D60429001E4D2
:100BF700A3E0149001DDF0602D9001E2E0FCA3E09A
:100C0700FD4C700C9002D9E07004A3E064086016F4
:100C1700ED64014C700C9002D7E07004A3E064020D
:100C270060047E007F019001DDE004F00209C7EF58
:100C370064014E60030209979002D9E0FEA3E0FF2A
:100C4700900000EEF0A3EFF09001E2E0FCA3E0FDDE
:100C57004C7002800E9002DAE02401FF9002D9E086
:100C67003400FE900002EEF0A3EFF09002D7E0FE12
:100C7700A3E0FF900004EEF0A3EFF0ED64014C70E9
:100C870002800E9002D8E02401FF9002D7E03400E2
:090C9700FE900006EEF0A3EFF060
:010CA0002231
:100CA100900000E0FEA3E0FF900205E06E7003A358
:100CB100E06F6003020D76900004E0FCA3E0FD907C
:100CC1000269E06C7003A3E06D6003020D76900190
:100CD100E2E07004A3E064036003020D76C39000B8
:100CE10003E09FFF900002E09EFEEF64014E60036F
:100CF100020D769001E5E004F070069001E4E00455
:100D0100F09001E4A3E09002CEF09002CEE0D39403
:100D1100004051E0FF25E02403F582E43402F5832D
:100D2100E0FCA3E0FDEF25E02405F582E43402F5C3
:100D310083ECF0A3EDF09002CEE0FF25E02467F50F
:100D410082E43402F583E0FCA3E0FDEF25E02469B1
:100D5100F582E43402F583ECF0A3EDF09002CEE0ED
:100D610014F080A6900206E004F07006900205E0FF
:100D710004F0120994900002E0FEA3E0FF90020546
:100D8100E06E7003A3E06F6003020E4D900004E07B
:100D9100FCA3E0FD900269E06C7003A3E06D6003C9
:100DA100020E4D9001E2E07004A3E06402600302D0
:100DB1000E4D900000E0FCA3E0FDC3EF9DFFEE9C13
:100DC100FEEF64014E6003020E4D9001E5E004F078
:100DD10070069001E4E004F09001E4A3E09002CEFB
:100DE100F09002CEE0D394004051E0FF25E02403CF
:100DF100F582E43402F583E0FCA3E0FDEF25E02475
:100E010005F582E43402F583ECF0A3EDF09002CE17
:100E1100E0FF25E02467F582E43402F583E0FCA3DA
:100E2100E0FDEF25E02469F582E43402F583ECF07E
:100E3100A3EDF09002CEE014F080A6900206E0242B
:0C0E4100FFF0900205E034FFF01209946D
:010E4D002282
:10120600E4F5809001E6F0A3F0900002E0FEA3E092
:10121600FF900000E0FCA3E0FDC39FFFEC9E4F7033
:101226002AED4C6026740444007005FE7F2080047D
:101236007E007F109001E7E02FF09001E6E03EF09F
:1012460074E02DF58274003C0212D5900002E0FE97
:10125600A3E0FF900000E0FCA3E0FDC39FFFEC9E2F
:101266004F7021ED4C701D740444007005FE7F2004
:1012760080047E007F109001E7E02FF09001E6E009
:101286003EF0803D900004E0FEA3E0FF4E7010901B
:1012960001E7E004F0702A9001E6E004F08022EF16
:1012A60064014E70089001E7E02440800CEF640270
:1012B6004E700E9001E7E02408F09001E6E034005D
:1012C600F0900000E0FEA3E024E1F58274003EF514
:0E12D60083E0F5A09001E6A3E0F58002001E83
:10004600E49002D8F09002D8E0FFC394084003027F
:100056000634E4F58074E12FF582E43400F583E09C
:10006600F5A0E49002D7F0FFEFFDC39001E5E09D17
:100076007480F89001E4E06480985003020622EF51
:1000860025E02405F582E43402F583E0FCA3E0FDD7
:100096009002D8E0FEFBED6B7001EC600302014AB2
:1000A600EF25E02469F582E43402F583E0FCA3E061
:1000B6004C600302014AEF14C394004033EE24015E
:1000C600FDE433FCEF25E02403F582E43402F583F6
:1000D600E0FAA3E0B50519EAB50415EF25E02467B3
:1000E600F582E43402F583E0FCA3E04C7002804E16
:1000F600EF2401FDE433FCC39001E5E09DEC648050
:10010600F89001E4E0648098403A9002D8E0240137
:10011600FDE433FCEF25E02407F582E43402F583A1
:10012600E0FAA3E0B5051DEAB50419EF25E0246B56
:10013600F582E43402F583E0FCA3E04C70069002FD
:10014600D7E004F09002D8E0FE64076003020223C1
:10015600EE2401FDE433FCEF25E02405F582E434CA
:1001660002F583E0FAA3E06D7002EA6C6003020216
:1001760023EF25E02469F582E43402F583E0FCA34D
:10018600E04C6003020223EF14C39400403890024F
:10019600D8E02401FDE433FCEF25E02403F582E4F6
:1001A6003402F583E0FAA3E0B5051BEAB50417EFC0
:1001B60025E02467F582E43402F583E0FCA3E064DD
:1001C600014C70028050EF2401FDE433FCC3900122
:1001D600E5E09DEC6480F89001E4E0648098403DA1
:1001E6009002D8E02401FDE433FCEF25E02407F576
:1001F60082E43402F583E0FAA3E0B50520EAB5040B
:100206001CEF25E0246BF582E43402F583E0FCA3C1
:10021600E064014C70079002D7E02402F09002D807
:10022600E0FE640760030202FEEE2401FDE433FCF7
:10023600EF25E02405F582E43402F583E0FAA3E035
:100246006D7002EA6C60030202FEEF25E02469F598
:1002560082E43402F583E0FCA3E064014C6003020F
:1002660002FEEF14C3940040389002D8E02401FD4A
:10027600E433FCEF25E02403F582E43402F583E061
:10028600FAA3E0B5051BEAB50417EF25E02467F5E8
:1002960082E43402F583E0FCA3E064024C70028041
:1002A60050EF2401FDE433FCC39001E5E09DEC64CE
:1002B60080F89001E4E0648098403D9002D8E02404
:1002C60001FDE433FCEF25E02407F582E43402F572
:1002D60083E0FAA3E0B50520EAB5041CEF25E02487
:1002E6006BF582E43402F583E0FCA3E064024C7013
:1002F600079002D7E02404F09002D8E0FE2401FD26
:10030600E433FCEF25E02405F582E43402F583E0CE
:10031600FAA3E06D7002EA6C60030203CCEF25E0FD
:100326002469F582E43402F583E0FCA3E064024C20
:1003360060030203CCEF14C394004034EF25E0249D
:1003460003F582E43402F583E0FCA3E0FDEEFB7ADC
:1003560000EDB5031BEAB50417EF25E02467F58227
:10036600E43402F583E0FCA3E064024C7002804FA3
:10037600EF2401FDE433FCC39001E5E09DEC6480CD
:10038600F89001E4E0648098403CEF25E02407F50E
:1003960082E43402F583E0FCA3E0FD9002D8E0FBA2
:1003A6007A00EDB50320EAB5041CEF25E0246BF5D1
:1003B60082E43402F583E0FCA3E064024C7007900B
:1003C60002D7E02408F0EF25E02405F582E43402A4
:1003D600F583E0FCA3E0FD9002D8E0FB7A00ED6B2C
:1003E6007001EC6003020491EF25E02469F582E4D4
:1003F6003402F583E0FCA3E064024C60030204913E
:10040600EF14C39400402EEF25E02403F582E43474
:1004160002F583E0FCA3E0B5031BEAB50417EF255C
:10042600E02467F582E43402F583E0FCA3E064018E
:100436004C7002804FEF2401FDE433FCC39001E5CC
:10044600E09DEC6480F89001E4E0648098403CEF25
:1004560025E02407F582E43402F583E0FCA3E0FD01
:100466009002D8E0FB7A00EDB50320EAB5041CEF54
:1004760025E0246BF582E43402F583E0FCA3E06416
:10048600014C70079002D7E02410F0EF25E0240518
:10049600F582E43402F583E0FCA3E0FD9002D8E0A7
:1004A600FB7A00ED6B7001EC6003020552EF25E06C
:1004B6002469F582E43402F583E0FCA3E064014C90
:1004C6006003020552EF14C39400402CEF25E0248C
:1004D60003F582E43402F583E0FCA3E0B50319EAF0
:1004E600B50415EF25E02467F582E43402F583E0D0
:1004F600FCA3E04C7002804DEF2401FDE433FCC305
:100506009001E5E09DEC6480F89001E4E064809859
:10051600403AEF25E02407F582E43402F583E0FC57
:10052600A3E0FD9002D8E0FB7A00EDB5031EEAB524
:10053600041AEF25E0246BF582E43402F583E0FC2F
:10054600A3E04C70079002D7E02420F0EF25E024CA
:1005560005F582E43402F583E0FCA3E0FD9002D8C1
:10056600E0FEFBED6B7001EC600302061EEF25E07A
:100576002469F582E43402F583E0FCA3E064014CCF
:10058600600302061EEF14C394004035EE2401FDFD
:10059600E433FCEF25E02403F582E43402F583E03E
:1005A600FAA3E0B5051BEAB50417EF25E02467F5C5
:1005B60082E43402F583E0FCA3E064014C7002801F
:1005C60050EF2401FDE433FCC39001E5E09DEC64AB
:1005D60080F89001E4E0648098403D9002D8E024E1
:1005E60001FDE433FCEF25E02407F582E43402F54F
:1005F60083E0FAA3E0B50520EAB5041CEF25E02464
:100606006BF582E43402F583E0FCA3E064014C70F0
:10061600079002D7E02440F00F02006E9002D7E068
:0E062600F58012001E9002D8E004F002004B96
:0106340022A3
:04177300EF4E6021B4
:101777009002D7740BF0A374BEF09002D8E014F077
:0F17870070F89002D7E014F070F0EF1F70DE1EC4
:0317960080DB22D3
:08001E007F027E0FDEFEDFFC15
:0100260022B7
:0300000002137870
:0C137800787FE4F6D8FD7581070213BFF2
:1010CD00BC000BBE0029EF8DF084FFADF022E4CC07
:1010DD00F875F008EF2FFFEE33FEEC33FCEE9DECD0
:1010ED00984005FCEE9DFE0FD5F0E9E4CEFD22ED16
:1010FD00F8F5F0EE8420D21CFEADF075F008EF2F60
:10110D00FFED33FD4007985006D5F0F222C398FD50
:05111D000FD5F0EA22ED
:10112200C5F0F8A3E028F0C5F0F8E5821582700258
:061132001583E038F022F5
:10170500C2D5E830E70FB2D5E4C39BFBE49AFAE40F
:1017150099F9E498F8EC30E717B2D512173B121196
:1017250074E4C39BFBE49AFAE499F9E498F880031E
:1017350012117430D50DE4C39FFFE49EFEE49DFDB8
:04174500E49CFC2202
:10138400020003E493A3F8E493A34003F68001F27C
:1013940008DFF48029E493A3F85407240CC8C3336A
:1013A400C4540F4420C8834004F456800146F6DF39
:1013B400E4800B0102040810204080900E4EE47E6D
:1013C400019360BCA3FF543F30E509541FFEE4932E
:1013D400A360010ECF54C025E060A840B8E493A3F5
:1013E400FAE493A3F8E493A3C8C582C8CAC583CA20
:1013F400F0A3C8C582C8CAC583CADFE9DEE780BED8
:010F8F000061
:1011380075F008758200EF2FFFEE33FECD33CDCC6E
:1011480033CCC58233C5829BED9AEC99E5829840F1
:101158000CF582EE9BFEED9AFDEC99FC0FD5F0D6CE
:10116800E4CEFBE4CDFAE4CCF9A88222B800C1B9F8
:101178000059BA002DEC8BF084CFCECDFCE5F0CB36
:10118800F97818EF2FFFEE33FEED33FDEC33FCEB6F
:1011980033FB10D703994004EB99FB0FD8E5E4F92A
:1011A800FA227818EF2FFFEE33FEED33FDEC33FC17
:1011B800C933C910D7059BE99A4007EC9BFCE99A0B
:1011C800F90FD8E0E4C9FAE4CCFB2275F010EF2F50
:1011D800FFEE33FEED33FDCC33CCC833C810D70750
:1011E8009BEC9AE899400AED9BFDEC9AFCE899F88B
:0E11F8000FD5F0DAE4CDFBE4CCFAE4C8F9221E
:00000001FF
